:020000040000FA
:0400000007EF00F016
:10000800048209ED00F00EEF01F00600F0A00FEFFA
:1000180000F011EF00F014EF00F0D604D66EF09067
:10002800F0A219EF00F01BEF00F056EF00F0F0B669
:1000380020EF00F023EF00F0010E24EF00F0000E97
:10004800FF0A016E014601460146F0500118F70B00
:100058000118F06ED5BE33EF00F036EF00F0010E58
:1000680037EF00F0000EFF0A016E01320132D55061
:1000780001187F0B0118D56EB1B045EF00F048EFBD
:1000880000F0010E49EF00F0000EFF0A016EB150BA
:100098000118FE0B0118B16E8A968A988A9A8A9C72
:1000A8008A9EF092A1A25BEF00F05DEF00F0DAEF1C
:1000B80000F0010E0224026E000E0320036E880E6B
:1000C800021807E1130E0318D8A46DEF00F06FEFC4
:1000D80000F0D5EF00F0780E0224026EEC0E03203B
:1000E800036E0A0ED618D8A47CEF00F07EEF00F05D
:1000F80083EF00F08A968A988A9A8A9C8A9E0A0ECA
:10010800D66089EF00F08BEF00F090EF00F08A9650
:100118008A988A9A8A9C8A8E0B0ED618D8A497EF4A
:1001280000F099EF00F09EEF00F08A868A988A9A8C
:100138008A9C8A9E0C0ED618D8A4A5EF00F0A7EFCB
:1001480000F0ACEF00F08A968A888A9A8A9C8A9E88
:100158000D0ED618D8A4B3EF00F0B5EF00F0BAEF43
:1001680000F08A968A988A8A8A9C8A9E0E0ED618E9
:10017800D8A4C1EF00F0C3EF00F0C8EF00F08A96F2
:100188008A988A9A8A8C8A9E0E0ED664CEEF00F0E0
:10019800D0EF00F0D5EF00F08A868A888A8A8A8CA8
:1001A8008A9EA192FF0EB36E060EB26E04921100E3
:1001B8000F0EC16E200E926E000E936E010E946E9D
:1001C800000E8A6ED08EF28EF29CF288F292F18C3A
:1001D800F090F09CF086F18AF092F088F188D58C46
:1001E800D58AD598D586D58EB18EB188B18AB19485
:1001F800B192B180FF0EB36E060EB26EA082A192CC
:10020800000EB36EFA0EB26E0A0ED66E0AEF01F049
:0E02180007EF00F0049004920001DCEF00F00C
:020000040020DA
:08000000FFFFFFFFFFFFFFFF00
:020000040030CA
:0E00000000051F1FFF8385FF0FC00FE00F409C
:00000001FF
